:0400000080312A28F9
:100008007E1480319C3040019C004E018C124101CD
:100018002008210422042304240425042604270498
:100028000319172818282828FF30A007FF30A13DFA
:10003800FF30A23DFF30A33DFF30A43DFF30A53D7A
:10004800FF30A63DFF30A73D7E10090080312C28E7
:100058008731FE278031EA007E1040018031342844
:1000680040019201073091007E01B8018B178F3152
:10007800E02780318431C22480318F31E8278031F4
:100088004001E7011129FC0100308731C427803184
:100098000B30FC009030FD00873177278031FC0160
:1000A80001308731C42780310030FC009030FD00DA
:1000B80087317727803185314C2580317C087D0454
:1000C800031D6728682891288731D9278031FC01CA
:1000D80000308731C4278031ED30FC008730FD00C7
:1000E8008731772780310030F7000030F600003084
:1000F800F5000030F4000030F3000030F200133057
:10010800F1008830F0000030F800F9008731352719
:1001180080318731D927803125294001E701E70A55
:100128008D28FC0100308731C42780312230FC0043
:100138009030FD008731772780314001E401E501E7
:100148006530AD0064308531BB25803140016408DD
:10015800B000B101B201B301B401B501B601B701F4
:100168005830B80084310A24803140016508B00055
:10017800B101B201B301B401B501B601B7016030F4
:10018800B80084310A2480315830FC000030FD006A
:100198008731772780312C30FC009030FD00873183
:1001A800772780316030FC000030FD0087317727E9
:1001B80080312830FC009030FD008731772780316E
:1001C8002529FC0100308731C42780311430FC0018
:1001D8009030FD008731772780314001E601E30147
:1001E8006330F00066308731962780314001660819
:1001F800B000B101B201B301B401B501B601B70154
:100208005C30B80084310A2480315C30FC00003056
:10021800FD00873177278031252940016708D600FE
:10022800D7015708003A03191A2925295608003A10
:1002380003194728013A03199528033A0319E528B1
:1002480025294001670803192A292B2911298F31EB
:10025800F22780316830F0006930833147238031DC
:1002680070087104031939293A2911294929873154
:10027800D92780314001E701E70A11298731D927B9
:10028800803102304001E700112940016908D60099
:10029800D7015708003A0319522911295608013A7B
:1002A80003193B29033A03194229112980312A28C5
:1002B800F2012030860000308700473FF000F01F31
:1002C8006629672988294001A009A109A209A3096B
:1002D800A409A509A609A709A00A031D8629A10A38
:1002E800031D8629A20A031D8629A30A031D862940
:1002F800A40A031D8629A50A031D8629A60A031D2B
:100308008629A70AF201F20A283086000030870001
:10031800473FF000F01F91299229B5294001A8090B
:10032800A909AA09AB09AC09AD09AE09AF09A80A20
:10033800031DB129A90A031DB129AA0A031DB12960
:10034800AB0A031DB129AC0A031DB129AD0A031D6F
:10035800B129AE0A031DB129AF0A0130F0007008B7
:10036800F20673308600003087000830F000003055
:100378001E00F00BBC29400120082104220423049C
:1003880024042504260427040319CB29CC29282A68
:10039800F101F10ADB29A035A10DA20DA30DA40DD1
:1003A800A50DA60DA70D0130F0007008F107A71FD5
:1003B800DE29DF29CF29F335F40DF50DF60DF70DFC
:1003C800F80DF90DFA0D27082F02031D052A260836
:1003D8002E02031D052A25082D02031D052A2408BF
:1003E8002C02031D052A23082B02031D052A2208B7
:1003F8002A02031D052A21082902031D052A2008AF
:100408002802031C082A092A1A2A2008A8022108F7
:10041800A93B2208AA3B2308AB3B2408AC3B250890
:10042800AD3B2608AE3B2708AF3B7314A736A60C96
:10043800A50CA40CA30CA20CA10CA00C0130F10279
:10044800031D272A282ADF29720803192C2A2D2A96
:100458004B2AF309F409F509F609F709F809F90926
:10046800FA09F30A031D4B2AF40A031D4B2AF50A5D
:10047800031D4B2AF60A031D4B2AF70A031D4B2AB4
:10048800F80A031D4B2AF90A031D4B2AFA0A7308B6
:100498004001A0007408A1007508A2007608A30016
:1004A8007708A4007808A5007908A6007A08A700AC
:1004B8000800F2012830860000308700473FF0002E
:1004C800F01F672A682A892A4001A809A909AA09E8
:1004D800AB09AC09AD09AE09AF09A80A031D872A03
:1004E800A90A031D872AAA0A031D872AAB0A031D26
:1004F800872AAC0A031D872AAD0A031D872AAE0A7C
:10050800031D872AAF0AF201F20A20308600003064
:100518008700473FF000F01F922A932AB22A400131
:10052800A009A109A209A309A409A509A609A7095F
:10053800A00A031DB22AA10A031DB22AA20A031D9A
:10054800B22AA30A031DB22AA40A031DB22AA50AC5
:10055800031DB22AA60A031DB22AA70A40012008D1
:10056800210422042304240425042604270403194F
:10057800BE2ABF2A122BF101F10ACE2AA035A10DFD
:10058800A20DA30DA40DA50DA60DA70D0130F00019
:100598007008F107A71FD12AD22AC22A27082F02DA
:1005A800031DF02A26082E02031DF02A25082D0215
:1005B800031DF02A24082C02031DF02A23082B020D
:1005C800031DF02A22082A02031DF02A2108290205
:1005D800031DF02A20082802031CF32AF42A042BFE
:1005E8002008A8022108A93B2208AA3B2308AB3B04
:1005F8002408AC3B2508AD3B2608AE3B2708AF3B9B
:10060800A736A60CA50CA40CA30CA20CA10CA00C3C
:100618000130F102031D112B122BD22A7208031983
:10062800162B172B352BA809A909AA09AB09AC0960
:10063800AD09AE09AF09A80A031D352BA90A031D88
:10064800352BAA0A031D352BAB0A031D352BAC0A23
:10065800031D352BAD0A031D352BAE0A031D352BA3
:10066800AF0A40012808A0002908A1002A08A20012
:100678002B08A3002C08A4002D08A5002E08A6000E
:100688002F08A7000800F40040010C0807390319D7
:100698004E2B4F2BD42BD72B700886008701313077
:1006A80081007408860087018101810A052C700881
:1006B8008600870132308100740886008701023085
:1006C8008100052C7008860087013330810074088A
:1006D8008600870103308100052C70088600870199
:1006E8003430810074088600870104308100052CAD
:1006F80070088600870135308100740886008701FC
:1007080005308100052C700886008701363081008D
:1007180074088600870106308100052C7008860061
:10072800870137308100740886008701073081000F
:10073800052C70088600870138308100740886000F
:10074800870108308100052C700886008701393040
:10075800810074088600870109308100052C700823
:10076800860087012A3081007408860087010B30D3
:100778008100052C700886008701303081007408DC
:10078800860087010A308100052C700886008701E1
:10079800233081007408860087010C308100052C05
:1007A800F001F101092C0C08F200F3017308003A7A
:1007B8000319DF2BD42B7208093A0319C92B033A02
:1007C8000319BE2B063A0319B32B1D3A0319A82B9C
:1007D800033A03199D2B063A0319922B353A03194C
:1007E800872B033A03197C2B063A0319712B653AB8
:1007F8000319662B033A03195B2B063A0319502B8E
:10080800D42B0130F0000030F100080039304001ED
:10081800D5003008CD003108CE003208CF003308AB
:10082800D0003408D1003508D2003608D300370884
:10083800D400762C0A30A000A101A201A301A401D2
:10084800A501A601A7014D08A8004E08A9004F0858
:10085800AA005008AB005108AC005208AD0053087C
:10086800AE005408AF0082315D2284314001210876
:10087800CA002008C9000A30A000A101A201A301F2
:10088800A401A501A601A7014D08A8004E08A900CA
:100898004F08AA005008AB005108AC005208AD0040
:1008A8005308AE005408AF0081315C218431400107
:1008B8002008CD002108CE002208CF002308D00050
:1008C8002408D1002508D2002608D3002708D40020
:1008D8005508860087014908303E81000130FB0039
:1008E8007B08D5074D084E044F04500451045204A8
:1008F80053045404031D812C822C1E2C5508393AAC
:100908000319872C882C1E2C4D3086000030870058
:10091800473FFB00FB1F912C922C9C2C4001550853
:10092800860087012D3081000130FB007B08D50748
:10093800393040015502CB00CC01CB1BCC03B22C83
:100948003808860087010130D502550884008501E2
:10095800000881000130FB007B08B8073930FB0034
:1009680055087B02031CB92CBA2CA42C4B08380759
:10097800FB007B0886008701810108000030F70032
:100988000030F6000030F5000030F4000030F300CD
:100998000030F2000230F1005830F0000030F8006A
:1009A800F90087313527843123304001970003301F
:1009B8009700C830F000F101F201F301F401F501EC
:1009C800F601F7010030F800F90087313527843146
:1009D80028308631F92684313230F000F101F201F5
:1009E800F301F401F501F601F7010030F800F90010
:1009F80087313527843128308631F92684313230E1
:100A0800F000F101F201F301F401F501F601F7013B
:100A18000030F800F9008731352784310F308631EE
:100A2800F92684313230F000F101F201F301F401CA
:100A3800F501F601F7010030F800F9008731352794
:100A4800843101308631F92684313230F000F101E9
:100A5800F201F301F401F501F601F7010030F800A5
:100A6800F90087313527843106308631F9268431FB
:100A78003230F000F101F201F301F401F501F60161
:100A8800F7010030F800F900873135278431080074
:100A98001B304001AE009030AF002730B10021304C
:100AA800B000B201812D8F31F22785314001310824
:100AB8003207F00030083207833147238531700848
:100AC80071040319682D692D722D01304001A000B1
:100AD8002008B2072A3086317F2685316430F0003D
:100AE800F101F201F301F401F501F601F70100301B
:100AF800F800F90087313527853106304001320288
:100B0800031C872D882D572D3108063E8600870146
:100B18008101B301B40140012E08330784002F0876
:100B2800343D85000008A0003308273E8600870171
:100B3800010820060319A12DA22DA52DFC01FD01F8
:100B4800BA2D0130B3070030B43D3408803AA00014
:100B580080302002031DB22D07303302031CB52D4F
:100B6800B62D8F2D0130FC000030FD00080040013B
:100B7800B000163041019E0013141318C42DC52D62
:100B8800C12D0D084001B20041010C084001B1001F
:100B98003008860087019C30A0006430F2000030E5
:100BA800F3003208F1003108F00087315827853109
:100BB8007108F9007008F8009C30F6008F30F700D3
:100BC8008631BD26853176088731AE27853181008B
:100BD80040012D08860087016430A4000030A5007C
:100BE8009C30A0006430F2000030F3003208F100BD
:100BF8003108F0008731582785317108F9007008ED
:100C0800F8009C30F6008F30F7008631BD2685311C
:100C180076088731AE278531143E4001AE00AF011A
:100C28002E08A6002F08A70086311F26853140010F
:100C38002408810008004001AA01A51F242E252EA2
:100C48002C2EA409A509A40A0319A50AAA01AA0A0F
:100C5800A71F2F2E302E392EA609A709A60A031979
:100C6800A70A0130A8002808AA06AB01AC0124088D
:100C780025040319402E412E702EA901A90A4D2ED4
:100C88000130A435A50D890B452E0130A800280890
:100C9800A907A51F502E512E442E0130AB35AC0D9F
:100CA800890B522E25082702031D5C2E24082602D4
:100CB800031C5F2E602E652E2408A6022508A73B7C
:100CC8002B140130A536A40C890B662E0130A9021D
:100CD800031D6F2E702E512E2A080319742E752E9F
:100CE8007A2EAB09AC09AB0A0319AC0A2C08A5008B
:100CF8002B08A4000800FB007B08FA000430FA3631
:100D0800890B832E7A080F39303E400197007B0803
:100D1800FA000430FA36890B8E2E7A080F39103E05
:100D28009700F001F00AF101F201F301F401F50175
:100D3800F601F7010030F800F900873135278631D0
:100D48007B080F39303E400197007B080F39103E71
:100D58009700F001F00AF101F201F301F401F50145
:100D6800F601F7010030F800F900873135278631A0
:100D78000800FB01FC01760877040319C42EC52E70
:100D8800F42EFD01FD0AD12E0130F635F70D890B41
:100D9800C92E0130FA007A08FD07F71FD42ED52E88
:100DA800C82E0130FB35FC0D890BD62E7708790249
:100DB800031DE02E76087802031CE32EE42EE92EAC
:100DC8007608F8027708F93B7B140130F736F60C01
:100DD800890BEA2E0130FD02031DF32EF42ED52EC9
:100DE8007C08F7007B08F6000800FB007B08FA0087
:100DF8000430FA36890BFD2E7A080F39203E40015F
:100E080097007B08FA000430FA36890B082F7A0815
:100E18000F399700F001F00AF101F201F301F40132
:100E2800F501F601F7010030F800F90087313527A0
:100E380086317B080F39203E400197007B080F3927
:100E48009700F001F00AF101F201F301F401F50154
:100E5800F601F7010030F800F900873135278631AF
:100E6800080040019C014E018C1270084101A0004D
:100E78007108A1007208A2007308A3007408A400F6
:100E88007508A5007608A6007708A7004B2F20084C
:100E98002104220423042404250426042704031D12
:100EA800562F572F4B2F0800F401F501701C5D2FAA
:100EB8005E2F622F7208F4077308F53D0130F23592
:100EC800F30D890B632F0130F136F00C890B682F75
:100ED80070087104031D712F722F5A2F7508F100C5
:100EE8007408F00008004001A101A2018A2F7C08C3
:100EF800210784007D08223D8500000886317F2671
:100F0800873101304001A1070030A23D7C0821074C
:100F180084007D08223D85001200031D942F952F23
:100F28007B2F0800F100173041019E00131413189D
:100F38009E2F9F2F9B2F0D08F3000C08F2007108BD
:100F48008600870172088100700886008701720890
:100F5800810008004001A300A201231CB42FB52F73
:100F6800B92F2008A1002108A2070310A00D031023
:100F7800A30C2308031DC12FC22FB12F220808007C
:100F8800FD007D08031DC92FCA2FCB2FD32F7D034A
:100F9800031DCF2FD02FD32F7C08403EFC007C08A8
:100FA800803E8631F9268731080001308631F926DE
:100FB80087310230F000F101F201F301F401F5018B
:100FC800F601F7010030F800F9008731352787313D
:100FD8000800503449344E34203469347334203492
:100FE80069346E3463346F34723472346534633404
:060FF800743400340834DB
:101FC000803040019E0045309F004E01961608006B
:101FD000843041019300E0307E01CE00E0304001CA
:101FE0009300080040016A35EA0080306A02031C51
:101FF000FA2FFB2FFD2F0830EA006A089600080030
:1020000045346E3474346534723420345034493479
:102010004E343A340034573465346C3463346F349E
:102020006D34653421340034543465346D34703487
:102030003A342034003431343234333434343534A7
:102040003634003448346D3464343A342034003447
:0C20500025345234483400342E3400345F
:020000040001F9
:08000000FF3FFF3FFF3FFF3F00
:0A000E008F3FFF3F9F3FFF3FFF3F82
:00000001FF
