:0400000080312A28F9
:100008007E1480319C3040019C004E018C124001CE
:100018002008210422042304240425042604270498
:100028000319172818282828FF30A007FF30A13DFA
:10003800FF30A23DFF30A33DFF30A43DFF30A53D7A
:10004800FF30A63DFF30A73D7E10090080312C28E7
:100058007E104001803193280030F7000030F60010
:100068000030F5000030F4000030F3000030F200FA
:100078000230F1005830F0000030F800F90081310A
:100088009621803123304001970003309700C83013
:10009800F000F101F201F301F401F501F601F701B5
:1000A8000030F800F900813196218031223040017A
:1000B8009700023097003230F000F101F201F301AD
:1000C800F401F501F601F7010030F800F90081317B
:1000D800962180312230400197000230970032305B
:1000E800F000F101F201F301F401F501F601F70165
:1000F8000030F800F90081319621803128308131B3
:10010800312180310F30813131218031013081310D
:1001180031218031063081313121803108004001A0
:10012800920191018B178131E62180318031302095
:100138008031FF30400196000030F7000030F600B3
:100148000030F5000030F4000030F3000030F20019
:100158000330F100E830F0000030F800F900813198
:1001680096218031400196010030F7000030F600FA
:100178000030F5000030F4000030F3000030F200E9
:100188000330F100E830F0000030F800F900813168
:1001980096218031FC01003081316D218031D830C9
:1001A800FC008130FD008131B92180310030F70039
:1001B8000030F6000030F5000030F4000030F300A5
:1001C8000030F2001330F1008830F0000030F80001
:1001D800F9008131962180319D2880312A28FB0041
:1001E8007B08FA000430FA36890BF7287A080F39A9
:1001F800303E400197007B08FA000430FA36890B3C
:1002080002297A080F39103E9700F001F00AF1012F
:10021800F201F301F401F501F601F7010030F800ED
:10022800F9008131962180317B080F39303E400139
:1002380097007B080F39103E9700F001F00AF10192
:10024800F201F301F401F501F601F7010030F800BD
:10025800F9008131962180310800FB007B08FA0003
:100268000430FA36890B35297A080F39203E4001C7
:1002780097007B08FA000430FA36890B40297A087F
:100288000F399700F001F00AF101F201F301F401CE
:10029800F501F601F7010030F800F90081319621E7
:1002A80081317B080F39203E400197007B080F39C8
:1002B8009700F001F00AF101F201F301F401F501F0
:1002C800F601F7010030F800F900813196218131FB
:1002D8000800FD007D08031D7229732974299029DF
:1002E8007D03031D782979297D297C08403EFC007F
:1002F800902902307D06031D8229832987297C08DD
:10030800143EFC00902903307D06031D8C298D299D
:1003180090297C08543EFC007C08803E81313121C4
:100328008131080040019C014E018C127008400187
:10033800A0007108A1007208A2007308A300740845
:10034800A4007508A5007608A6007708A700AC29C0
:100358002008210422042304240425042604270455
:10036800031DB729B829AC2908004001A901AA0131
:10037800CC297C08290784007D082A3D85000008CF
:100388008031F320813101304001A9070030AA3DB6
:100398007C08290784007D082A3D85001200031D7A
:1003A800D629D729BD290800483465346C346C3403
:1003B8006F342C34203457346F3472346C346434D2
:1003C80021340034803040019E0045309F004E01AA
:0403D800961608006D
:020000040001F9
:08000000FF3FFF3FFF3FFF3F00
:0A000E008F3FFF3F9F3FFF3FFF3F82
:00000001FF
