:040000008031122811
:100008007E1480319C3040019C004E018C120130DE
:100018004001EA020030EB3B7E10090080311428D1
:100028007E1040018331172BF2012030860000300A
:100038008700473FF000F01F22282328442840016A
:10004800A009A109A209A309A409A509A609A70944
:10005800A00A031D4228A10A031D4228A20A031D63
:100068004228A30A031D4228A40A031D4228A50A00
:10007800031D4228A60A031D4228A70AF201F20A14
:100088002830860000308700473FF000F01F4D28D9
:100098004E2871284001A809A909AA09AB09AC0989
:1000A800AD09AE09AF09A80A031D6D28A90A031DE9
:1000B8006D28AA0A031D6D28AB0A031D6D28AC0A1A
:1000C800031D6D28AD0A031D6D28AE0A031D6D289A
:1000D800AF0A0130F0007008F20673308600003075
:1000E80087000830F00000301E00F00B782840012F
:1000F80020082104220423042404250426042704B8
:10010800031987288828E428F101F10A9728A035DF
:10011800A10DA20DA30DA40DA50DA60DA70D0130CF
:10012800F0007008F107A71F9A289B288B28F33541
:10013800F40DF50DF60DF70DF80DF90DFA0D27086C
:100148002F02031DC12826082E02031DC1282508D9
:100158002D02031DC12824082C02031DC1282308D1
:100168002B02031DC12822082A02031DC1282108C9
:100178002902031DC12820082802031CC428C528F9
:10018800D6282008A8022108A93B2208AA3B230850
:10019800AB3B2408AC3B2508AD3B2608AE3B270803
:1001A800AF3B7314A736A60CA50CA40CA30CA20C89
:1001B800A10CA00C0130F102031DE328E4289B28C0
:1001C80072080319E828E9280729F309F409F50949
:1001D800F609F709F809F909FA09F30A031D0729C5
:1001E800F40A031D0729F50A031D0729F60A031D4A
:1001F8000729F70A031D0729F80A031D0729F90A21
:10020800031D0729FA0A73084001A0007408A10019
:100218007508A2007608A3007708A4007808A5004E
:100228007908A6007A08A7000800F201283086009D
:1002380000308700473FF000F01F23292429452973
:100248004001A809A909AA09AB09AC09AD09AE0979
:10025800AF09A80A031D4329A90A031D4329AA0AAD
:10026800031D4329AB0A031D4329AC0A031D432977
:10027800AD0A031D4329AE0A031D4329AF0AF20143
:10028800F20A2030860000308700473FF000F01F58
:100298004E294F296E294001A009A109A209A309E5
:1002A800A409A509A609A709A00A031D6E29A10A80
:1002B800031D6E29A20A031D6E29A30A031D6E29B8
:1002C800A40A031D6E29A50A031D6E29A60A031D8B
:1002D8006E29A70A400120082104220423042404CB
:1002E80025042604270403197A297B29CE29F1013C
:1002F800F10A8A29A035A10DA20DA30DA40DA50D03
:10030800A60DA70D0130F0007008F107A71F8D2971
:100318008E297E2927082F02031DAC2926082E02C4
:10032800031DAC2925082D02031DAC2924082C0225
:10033800031DAC2923082B02031DAC2922082A021D
:10034800031DAC2921082902031DAC292008280215
:10035800031CAF29B029C0292008A8022108A93BFD
:100368002208AA3B2308AB3B2408AC3B2508AD3B3D
:100378002608AE3B2708AF3BA736A60CA50CA40C55
:10038800A30CA20CA10CA00C0130F102031DCD2975
:10039800CE298E2972080319D229D329F129A8094F
:1003A800A909AA09AB09AC09AD09AE09AF09A80AA0
:1003B800031DF129A90A031DF129AA0A031DF12920
:1003C800AB0A031DF129AC0A031DF129AD0A031D6F
:1003D800F129AE0A031DF129AF0A40012808A0003F
:1003E8002908A1002A08A2002B08A3002C08A400B1
:1003F8002D08A5002E08A6002F08A70008003930F0
:100408004001D5003008CD003108CE003208CF00B9
:100418003308D0003408D1003508D2003608D3009C
:100428003708D4006F2A0A30A000A101A201A30155
:10043800A401A501A601A7014D08A8004E08A9001E
:100448004F08AA005008AB005108AC005208AD0094
:100458005308AE005408AF008131192182314001A0
:100468002108CA002008C9000A30A000A101A20181
:10047800A301A401A501A601A7014D08A8004E08E3
:10048800A9004F08AA005008AB005108AC00520858
:10049800AD005308AE005408AF00803118208231F7
:1004A80040012008CD002108CE002208CF002308F3
:1004B800D0002408D1002508D2002608D300270838
:1004C800D4005508860087014908303E8100013074
:1004D800FB007B08D5074D084E044F045004510417
:1004E800520453045404031D7A2A7B2A172A5508F8
:1004F800393A0319802A812A172A39305502CB0044
:10050800CC01CB1BCC03962A380886008701013022
:10051800D502550884008501000881000130FB00E0
:100528007B08B8073930FB0055087B02031C9D2A5D
:100538009E2A882A4B083807FB007B08860087011B
:10054800810108003C304001A000A101A201A301E3
:10055800A401A501A601A7010030A800A9008431C3
:10056800B7248231233040019700033097001430BC
:10057800A000A101A201A301A401A501A601A70150
:100588000030A800A9008431B7248231233040010B
:100598009700033097000530A000A101A201A30134
:1005A800A401A501A601A7010030A800A900843173
:1005B800B72482312330400197000330970005307B
:1005C800A000A101A201A301A401A501A601A70100
:1005D8000030A800A9008431B724823123304001BB
:1005E8009700033097000530A000A101A201A301E4
:1005F800A401A501A601A7010030A800A900843123
:10060800B724823128308331E82382310C3083319A
:10061800E823823106308331E82382310130833187
:10062800E823823108008B178431E2248331823138
:10063800A62283318431EA248331F80100308431E1
:1006480052248331D430F8008430F90084319A245C
:10065800833184312424833140012108E9002008B2
:10066800E8006908D7006808D6005608B00057089F
:10067800B100B201B301B401B501B601B7015830F8
:10068800B800823103228331F801013084315224C9
:1006980083315830F8000030F90084319A248331CE
:1006A80000304001A7000030A6000030A50000304F
:1006B800A4000030A3000030A2001330A10088304D
:1006C800A0000030A800A9008431B7248331212B71
:1006D80080311228F7007708F6000430F636890BC7
:1006E800722B76080F39303E400197007708F600E4
:1006F8000430F636890B7D2B76080F39103E9700AB
:10070800A001A00AA101A201A301A401A501A601BB
:10071800A7010030A800A9008431B72483317708E5
:100728000F39303E4001970077080F39103E970087
:10073800A001A00AA101A201A301A401A501A6018B
:10074800A7010030A800A9008431B724833108002C
:10075800FB01FC01760877040319B32BB42BE32BB8
:10076800FD01FD0AC02B0130F635F70D890BB82BBA
:100778000130FA007A08FD07F71FC32BC42BB72BEB
:100788000130FB35FC0D890BC52B77087902031D59
:10079800CF2B76087802031CD22BD32BD82B7608C4
:1007A800F8027708F93B7B140130F736F60C890B11
:1007B800D92B0130FD02031DE22BE32BC42B7C084F
:1007C800F7007B08F6000800F7007708F600043009
:1007D800F636890BEC2B76080F39203E400197003E
:1007E8007708F6000430F636890BF72B76080F39B0
:1007F8009700A001A00AA101A201A301A401A501DB
:10080800A601A7010030A800A9008431B7248331CC
:1008180077080F39203E4001970077080F39970075
:10082800A001A00AA101A201A301A401A501A6019A
:10083800A7010030A800A9008431B724833108003B
:1008480041019E01131413182A2C2B2C272C0D0858
:100858004001A30041010C084001A2000A30F60043
:100868000030F7002308F1002208F000E830F20019
:100878000330F30084317B2484317108F900700857
:10088800F8008331AC23843177084001A50076084D
:10089800A4002508A1002408A0000800F900790890
:1008A800031D572C582C592C752C7903031D5D2CCE
:1008B8005E2C622C7808403EF800752C02307906D0
:1008C800031D672C682C6C2C7808143EF800752CD6
:1008D80003307906031D712C722C752C7808543E50
:1008E800F8007808803E8331E82384310800F40159
:1008F800F501701C802C812C852C7208F407730874
:10090800F53D0130F235F30D890B862C0130F136B7
:10091800F00C890B8B2C70087104031D942C952CFA
:100928007D2C7508F1007408F0000800FB01FC013B
:10093800AB2C78087B07840079087C3D850000088B
:1009480083316E2384310130FB070030FC3D780889
:100958007B07840079087C3D85001200031DB52CB7
:10096800B62C9D2C080040019C014E018C124001C0
:100978002108F1002008F0000A30F2000030F300EE
:1009880084317B24843171084001EB007008EA004F
:10099800CD2C6A086B04031DD22CD32CCD2C080057
:1009A800483465346C346C346F342C342034573408
:1009B8006F3472346C346434213400348030400134
:1009C8009E004A309F004E019616080044304101AF
:0A09D800930003307E01B800080010
:020000040001F9
:08000000FF3FFF3FFF3FFF3F00
:0A000E00FF3FFF3FFF3FFF3FFF3FB2
:00000001FF
